:100000000C942A000C9434000C9434000C943400AA
:100010000C9434000C9434000C9434000C94340090
:100020000C9434000C9434000C9434000C94340080
:100030000C9434000C9434000C9434000C94340070
:100040000C9434000C9434000C9434000C94340060
:100050000C94340011241FBECFE5D8E0DEBFCDBF25
:100060000E9481000C94C6000C94000081B3816052
:1000700081BB81B3826081BB81B3806181BB81B36D
:10008000806281BB81B3806481BB81B3806881BBA6
:10009000089582BB85B38E7F85BB85B38D7F85BB7D
:1000A00085B3846085BB83EC99E00197F1F700C0CC
:1000B000000085B38B7F85BB089582BB85B38160CB
:1000C00085BB85B38D7F85BB85B3846085BB83ECA1
:1000D00099E00197F1F700C0000085B38B7F85BBE5
:1000E000089588E30E94490086E00E94490080E864
:1000F0000E9449008EE00E94490081E00E94490070
:1001000008950E9436000E94710081E00E949700CD
:10011000C1E68C2F0E94C100D82F80E890E00E9499
:1001200049008D2F90E00E945D00CF5FF2CF8111DA
:1001300013C087B3806187BB87B3806287BB87B3F7
:10014000806887BB87B38F7B87BB88B3806188BBA0
:100150008DB180618DB911C0813079F487B38F7E04
:1001600087BB87B38F7D87BB87B38F7787BB87B309
:10017000806487BB8DB18F7E8DB98DB180648DB960
:1001800008958FB9779BFECF8FB10895F894FFCF74
:00000001FF
